{
  "_format": "hh-sol-artifact-1",
  "contractName": "TodoList",
  "sourceName": "contracts/TodoList.sol",
  "abi": [
    {
      "inputs": [
        {
          "internalType": "string",
          "name": "_titulo",
          "type": "string"
        },
        {
          "internalType": "string",
          "name": "_descripcion",
          "type": "string"
        }
      ],
      "name": "createTask",
      "outputs": [],
      "stateMutability": "nonpayable",
      "type": "function"
    },
    {
      "inputs": [
        {
          "internalType": "uint256",
          "name": "_id",
          "type": "uint256"
        }
      ],
      "name": "deleteTasks",
      "outputs": [],
      "stateMutability": "nonpayable",
      "type": "function"
    },
    {
      "inputs": [],
      "name": "taskCount",
      "outputs": [
        {
          "internalType": "uint256",
          "name": "",
          "type": "uint256"
        }
      ],
      "stateMutability": "view",
      "type": "function"
    },
    {
      "inputs": [
        {
          "internalType": "uint256",
          "name": "",
          "type": "uint256"
        }
      ],
      "name": "tasks",
      "outputs": [
        {
          "internalType": "uint256",
          "name": "id",
          "type": "uint256"
        },
        {
          "internalType": "string",
          "name": "titulo",
          "type": "string"
        },
        {
          "internalType": "string",
          "name": "descripcion",
          "type": "string"
        }
      ],
      "stateMutability": "view",
      "type": "function"
    }
  ],
  "bytecode": "0x60806040526000805534801561001457600080fd5b5061080b806100246000396000f3fe608060405234801561001057600080fd5b506004361061004c5760003560e01c8063292a458514610051578063383350c61461006d5780638d97767214610089578063b6cb58a5146100bb575b600080fd5b61006b6004803603810190610066919061052a565b6100d9565b005b610087600480360381019061008291906105d8565b61016c565b005b6100a3600480360381019061009e91906105d8565b6101ad565b6040516100b29392919061069c565b60405180910390f35b6100c36102e7565b6040516100d091906106e1565b60405180910390f35b6000808154809291906100eb9061072b565b9190505550604051806060016040528060005481526020018381526020018281525060016000805481526020019081526020016000206000820151816000015560208201518160010190805190602001906101479291906102ed565b5060408201518160020190805190602001906101649291906102ed565b509050505050565b600160008281526020019081526020016000206000808201600090556001820160006101989190610373565b6002820160006101a89190610373565b505050565b60016020528060005260406000206000915090508060000154908060010180546101d6906107a3565b80601f0160208091040260200160405190810160405280929190818152602001828054610202906107a3565b801561024f5780601f106102245761010080835404028352916020019161024f565b820191906000526020600020905b81548152906001019060200180831161023257829003601f168201915b505050505090806002018054610264906107a3565b80601f0160208091040260200160405190810160405280929190818152602001828054610290906107a3565b80156102dd5780601f106102b2576101008083540402835291602001916102dd565b820191906000526020600020905b8154815290600101906020018083116102c057829003601f168201915b5050505050905083565b60005481565b8280546102f9906107a3565b90600052602060002090601f01602090048101928261031b5760008555610362565b82601f1061033457805160ff1916838001178555610362565b82800160010185558215610362579182015b82811115610361578251825591602001919060010190610346565b5b50905061036f91906103b3565b5090565b50805461037f906107a3565b6000825580601f1061039157506103b0565b601f0160209004906000526020600020908101906103af91906103b3565b5b50565b5b808211156103cc5760008160009055506001016103b4565b5090565b6000604051905090565b600080fd5b600080fd5b600080fd5b600080fd5b6000601f19601f8301169050919050565b7f4e487b7100000000000000000000000000000000000000000000000000000000600052604160045260246000fd5b610437826103ee565b810181811067ffffffffffffffff82111715610456576104556103ff565b5b80604052505050565b60006104696103d0565b9050610475828261042e565b919050565b600067ffffffffffffffff821115610495576104946103ff565b5b61049e826103ee565b9050602081019050919050565b82818337600083830152505050565b60006104cd6104c88461047a565b61045f565b9050828152602081018484840111156104e9576104e86103e9565b5b6104f48482856104ab565b509392505050565b600082601f830112610511576105106103e4565b5b81356105218482602086016104ba565b91505092915050565b60008060408385031215610541576105406103da565b5b600083013567ffffffffffffffff81111561055f5761055e6103df565b5b61056b858286016104fc565b925050602083013567ffffffffffffffff81111561058c5761058b6103df565b5b610598858286016104fc565b9150509250929050565b6000819050919050565b6105b5816105a2565b81146105c057600080fd5b50565b6000813590506105d2816105ac565b92915050565b6000602082840312156105ee576105ed6103da565b5b60006105fc848285016105c3565b91505092915050565b61060e816105a2565b82525050565b600081519050919050565b600082825260208201905092915050565b60005b8381101561064e578082015181840152602081019050610633565b8381111561065d576000848401525b50505050565b600061066e82610614565b610678818561061f565b9350610688818560208601610630565b610691816103ee565b840191505092915050565b60006060820190506106b16000830186610605565b81810360208301526106c38185610663565b905081810360408301526106d78184610663565b9050949350505050565b60006020820190506106f66000830184610605565b92915050565b7f4e487b7100000000000000000000000000000000000000000000000000000000600052601160045260246000fd5b6000610736826105a2565b91507fffffffffffffffffffffffffffffffffffffffffffffffffffffffffffffffff821415610769576107686106fc565b5b600182019050919050565b7f4e487b7100000000000000000000000000000000000000000000000000000000600052602260045260246000fd5b600060028204905060018216806107bb57607f821691505b602082108114156107cf576107ce610774565b5b5091905056fea2646970667358221220b6b9b43e5ecd9c15da99c58be38f4f3beb369eb7923a8978cf1de4ba9b41b71064736f6c63430008090033",
  "linkReferences": {},
  "deployedLinkReferences": {}
}